:020000040800F2
:1000000000280020C9150008ED140008F3140008AA
:10001000F9140008FF14000805150008000000008E
:100020000000000000000000000000000B150008A8
:100030001715000800000000231500082F15000800
:1000400011160008111600081116000811160008F4
:1000500011160008111600081116000811160008E4
:1000600011160008111600081116000811160008D4
:1000700011160008111600081116000811160008C4
:1000800011160008111600081116000811160008B4
:1000900011160008111600081116000811160008A4
:1000A0001116000811160008111600081116000894
:1000B0003D15000811160008000000001116000888
:1000C00011160008000000000000000011160008D2
:1000D00000000000111600081116000800000000C2
:1000E0001116000811160008111600080000000083
:1000F0000000000000000000000000000000000000
:0C01000000000000000000005FF808F1A3
:1001100010B5054C237833B9044B13B10448AFF341
:1001200000800123237010BD70000020000000003B
:100130000447000808B5034B1BB103490348AFF35C
:10014000008008BD00000000740000200447000883
:1001500081F0004102E000BF83F0004330B54FEA78
:1001600041044FEA430594EA050F08BF90EA020FE5
:100170001FBF54EA000C55EA020C7FEA645C7FEA78
:10018000655C00F0E2804FEA5454D4EB5555B8BF9B
:100190006D420CDD2C4480EA020281EA030382EA0C
:1001A000000083EA010180EA020281EA0303362D9E
:1001B00088BF30BD11F0004F4FEA01314FF4801C71
:1001C0004CEA113102D0404261EB410113F0004F83
:1001D0004FEA03334CEA133302D0524263EB43033A
:1001E00094EA050F00F0A780A4F10104D5F1200ED8
:1001F0000DDB02FA0EFC22FA05F2801841F1000133
:1002000003FA0EF2801843FA05F359410EE0A5F106
:1002100020050EF1200E012A03FA0EFC28BF4CF037
:10022000020C43FA05F3C01851EBE37101F00045ED
:1002300007D54FF0000EDCF1000C7EEB00006EEBFA
:100240000101B1F5801F1BD3B1F5001F0CD3490884
:100250005FEA30004FEA3C0C04F101044FEA4452DB
:1002600012F5800F80F09A80BCF1004F08BF5FEA62
:10027000500C50F1000041EB045141EA050130BD42
:100280005FEA4C0C404141EB0101013C28BFB1F554
:10029000801FE9D291F0000F04BF01460020B1FA9F
:1002A00081F308BF2033A3F10B03B3F120020CDA72
:1002B0000C3208DD02F1140CC2F10C0201FA0CF050
:1002C00021FA02F10CE002F11402D8BFC2F1200CB5
:1002D00001FA02F120FA0CFCDCBF41EA0C0190406B
:1002E000E41AA2BF01EB0451294330BD6FEA0404B4
:1002F0001F3C1CDA0C340EDC04F11404C4F120029F
:1003000020FA04F001FA02F340EA030021FA04F3B0
:1003100045EA030130BDC4F10C04C4F1200220FA07
:1003200002F001FA04F340EA0300294630BD21FA45
:1003300004F0294630BD94F0000F83F4801306BF0B
:1003400081F480110134013D4EE77FEA645C18BFFF
:100350007FEA655C29D094EA050F08BF90EA020F96
:1003600005D054EA000C04BF1946104630BD91EA8E
:10037000030F1EBF0021002030BD5FEA545C05D191
:100380004000494128BF41F0004130BD14F58004D0
:100390003CBF01F5801130BD01F0004545F0FE4144
:1003A00041F470014FF0000030BD7FEA645C1ABF79
:1003B000194610467FEA655C1CBF0B46024650EAB0
:1003C000013406BF52EA033591EA030F41F40021DC
:1003D00030BD00BF90F0000F04BF0021704730B562
:1003E0004FF4806404F132044FF000054FF0000137
:1003F00050E700BF90F0000F04BF0021704730B5F8
:100400004FF4806404F1320410F0004548BF4042CC
:100410004FF000013EE700BF42004FEAE2014FEA21
:1004200031014FEA02701FBF12F07F4393F07F4FFC
:1004300081F06051704732F07F4208BF704793F0FF
:100440007F4F04BF41F40021704730B54FF4607412
:1004500001F0004521F000411CE700BF50EA010215
:1004600008BF704730B54FF000050AE050EA0102BE
:1004700008BF704730B511F0004502D5404261EB2E
:1004800041014FF4806404F132045FEA915C3FF46F
:10049000D8AE4FF003025FEADC0C18BF03325FEA0C
:1004A000DC0C18BF033202EBDC02C2F1200300FABD
:1004B00003FC20FA02F001FA03FE40EA0E0021FAE2
:1004C00002F11444BDE600BF70B54FF0FF0C4CF4D0
:1004D000E06C1CEA11541DBF1CEA135594EA0C0F82
:1004E00095EA0C0F00F0DEF82C4481EA030621EABD
:1004F0004C5123EA4C5350EA013518BF52EA0335F8
:1005000041F4801143F4801338D0A0FB02CE4FF0A9
:100510000005E1FB02E506F00042E0FB03E54FF0D9
:100520000006E1FB03569CF0000F18BF4EF0010ED1
:10053000A4F1FF04B6F5007F64F5407404D25FEACD
:100540004E0E6D4146EB060642EAC62141EA555180
:100550004FEAC52040EA5E504FEACE2EB4F1FD0CC2
:1005600088BFBCF5E06F1ED8BEF1004F08BF5FEA40
:10057000500E50F1000041EB045170BD06F00046F2
:1005800046EA010140EA020081EA0301B4EB5C049F
:10059000C2BFD4EB0C0541EA045170BD41F4801197
:1005A0004FF0000E013C00F3AB8014F1360FDEBFBC
:1005B000002001F0004170BDC4F10004203C35DA98
:1005C0000C341BDC04F11404C4F1200500FA05F31B
:1005D00020FA04F001FA05F240EA020001F00042BC
:1005E00021F0004110EBD37021FA04F642EB060132
:1005F0005EEA430E08BF20EAD37070BDC4F10C045C
:10060000C4F1200500FA04F320FA05F001FA04F21F
:1006100040EA020001F0004110EBD37041F100010B
:100620005EEA430E08BF20EAD37070BDC4F1200516
:1006300000FA05F24EEA020E20FA04F301FA05F27E
:1006400043EA020321FA04F001F0004121FA04F226
:1006500020EA020000EBD3705EEA430E08BF20EAF6
:10066000D37070BD94F0000F0FD101F00046400030
:1006700041EB010111F4801F08BF013CF7D041EAB2
:10068000060195F0000F18BF704703F000465200B6
:1006900043EB030313F4801F08BF013DF7D043EA87
:1006A0000603704794EA0C0F0CEA135518BF95EA3D
:1006B0000C0F0CD050EA410618BF52EA4306D1D1C4
:1006C00081EA030101F000414FF0000070BD50EAE3
:1006D000410606BF1046194652EA430619D094EA6D
:1006E0000C0F02D150EA013613D195EA0C0F05D157
:1006F00052EA03361CBF104619460AD181EA0301AB
:1007000001F0004141F0FE4141F470014FF0000062
:1007100070BD41F0FE4141F4780170BD70B54FF0FD
:10072000FF0C4CF4E06C1CEA11541DBF1CEA13557D
:1007300094EA0C0F95EA0C0F00F0A7F8A4EB05045F
:1007400081EA030E52EA03354FEA013100F0888056
:100750004FEA03334FF0805545EA131343EA12631F
:100760004FEA022245EA111545EA10654FEA0026D4
:100770000EF000419D4208BF964244F1FD0404F58D
:10078000407402D25B084FEA3202B61A65EB0305E9
:100790005B084FEA32024FF480104FF4002CB6EBA6
:1007A000020E75EB030E22BFB61A754640EA0C0026
:1007B0005B084FEA3202B6EB020E75EB030E22BF66
:1007C000B61A754640EA5C005B084FEA3202B6EBA7
:1007D000020E75EB030E22BFB61A754640EA9C0066
:1007E0005B084FEA3202B6EB020E75EB030E22BF36
:1007F000B61A754640EADC0055EA060E18D04FEAF4
:10080000051545EA16754FEA06164FEAC30343EA93
:1008100052734FEAC2025FEA1C1CC0D111F4801F60
:100820000BD141EA00014FF000004FF0004CB6E759
:1008300011F4801F04BF01430020B4F1FD0C88BFF8
:10084000BCF5E06F3FF6AFAEB5EB030C04BFB6EB03
:10085000020C5FEA500C50F1000041EB045170BDF6
:100860000EF0004E4EEA113114EB5C04C2BFD4EB23
:100870000C0541EA045170BD41F480114FF0000EA7
:10088000013C90E645EA060E8DE60CEA135594EA23
:100890000C0F08BF95EA0C0F3FF43BAF94EA0C0F26
:1008A0000AD150EA01347FF434AF95EA0C0F7FF49B
:1008B00025AF104619462CE795EA0C0F06D152EAEF
:1008C00003353FF4FDAE1046194622E750EA4106D3
:1008D00018BF52EA43067FF4C5AE50EA41047FF4E4
:1008E0000DAF52EA43057FF4EBAE12E74FF0FF3C49
:1008F00006E000BF4FF0010C02E000BF4FF0010C1A
:100900004DF804CD4FEA410C7FEA6C5C4FEA430C92
:1009100018BF7FEA6C5C1BD001B050EA410C0CBFE1
:1009200052EA430C91EA030F02BF90EA020F002043
:10093000704710F1000F91EA030F58BF994208BFAA
:1009400090422CBFD8176FEAE37040F00100704767
:100950004FEA410C7FEA6C5C02D150EA013C07D1BE
:100960004FEA430C7FEA6C5CD6D152EA033CD3D009
:100970005DF8040B704700BF8446104662468C4603
:100980001946634600E000BF01B5FFF7B7FF002836
:1009900048BF10F1000F01BD4DF808EDFFF7F4FF5F
:1009A0000CBF012000205DF808FB00BF4DF808EDEA
:1009B000FFF7EAFF34BF012000205DF808FB00BF0D
:1009C0004DF808EDFFF7E0FF94BF012000205DF82F
:1009D00008FB00BF4DF808EDFFF7CEFF94BF0120E4
:1009E00000205DF808FB00BF4DF808EDFFF7C4FFDD
:1009F00034BF012000205DF808FB00BF4FEA410C26
:100A00007FEA6C5C02D150EA013C0AD14FEA430C08
:100A10007FEA6C5C02D152EA033C02D14FF0000045
:100A200070474FF0010070474A0011D212F50012D2
:100A300011D20DD56FF47873B3EB62520ED44FEA36
:100A4000C12343F0004343EA505323FA02F07047B6
:100A50004FF00000704750EA013002D14FF0FF30F4
:100A600070474FF00000704780B582B000AF0023A0
:100A70007B60BAE0614B1B68012B05D1604B002203
:100A80001A60002000F08EFC5E4A7B6813441978DF
:100A90005D4A7B6813440A461A705C4A7B681344BB
:100AA0001978584A7B6813440A461A707868FFF729
:100AB000A1FC02460B464FF000004FF0804102F0CF
:100AC0003FFF4FF00002524BFFF7FEFC02460B4681
:100AD00010461946FFF7A8FF03469BB219464D483A
:100AE00001F084F803461946484A7B6813440A46D5
:100AF0001A70494A7B6813441B78012B09D1474A75
:100B00007B68002142F82310454A7B68002142F8A7
:100B100023103E4A7B6813441A783A497B680B4499
:100B20001B789A425ED1374A7B6813441A7836495B
:100B30007B680B441B789A4254D1374A7B68134434
:100B40001A7831497B680B441B789A4230D02E4A80
:100B50007B6813441978304A7B6813440A461A703C
:100B60002D4A7B6813441B78002B3BD12D4A7B68B0
:100B7000012142F823102A4A7B684FF4967142F80B
:100B800023101F4B1B68002B06D1322000F00AFCFB
:100B90001B4B00221A6025E0234A7B68012142F8A2
:100BA0002310174B00221A60002000F0FBFB19E015
:100BB000194A7B6813441B78002B13D1184A7B68B1
:100BC00052F823305A1E16497B6841F82320144AF4
:100BD0007B6852F82330002B04DC104A7B6801212B
:100BE00042F823107B6801337B607B68002B7FF722
:100BF00041AF00BF00BF0837BD4680BD6004002084
:100C0000AC000020940000209800002090000020FC
:100C10000000C040001001408C000020A000002017
:100C2000A80000209C000020A400002080B58EB009
:100C300000AF20210A4801F008F80A4B1A68381D55
:100C4000094B0A4902F002FA03469AB2391D4FF4E1
:100C50007A73074802F05DF800BF3837BD4680BDA3
:100C6000000801403C0100202047000834470008EC
:100C7000F800002080B58EB000AF40210A4800F097
:100C8000E4FF0A4B1A68381D094B0A4902F0DEF9E5
:100C900003469AB2391D4FF47A73074802F039F8C7
:100CA00000BF3837BD4680BD000801403C01002030
:100CB0003C47000834470008F800002080B58EB09B
:100CC00000AF80210A4800F0C0FF0A4B1A68381DA7
:100CD000094B0A4902F0BAF903469AB2391D4FF49A
:100CE0007A73074802F015F800BF3837BD4680BD5B
:100CF000000801403C01002050470008344700082C
:100D0000F800002080B58EB000AF0C4B1A68381D7B
:100D10000B4B0C4902F09AF903469AB2391D4FF475
:100D20007A73094801F0F5FF4FF48071074800F02D
:100D30008CFF00BF3837BD4680BD00BF3C0100209E
:100D40006447000834470008F8000020000801400C
:100D500080B58EB000AF0C4B1A68381D0B4B0C4998
:100D600002F074F903469AB2391D4FF47A730948B8
:100D700001F0CFFF4FF40071074800F066FF00BF9D
:100D80003837BD4680BD00BF3C01002078470008D1
:100D900034470008F80000200008014080B58EB0FC
:100DA00000AF0C4B1A68381D0B4B0C4902F04EF982
:100DB00003469AB2391D4FF47A73094801F0A9FF2E
:100DC0004FF48061074800F040FF00BF3837BD4650
:100DD00080BD00BF3C0100208C470008344700085C
:100DE000F80000200008014080B58EB000AF0F4B26
:100DF0001B68012B16D10E4B1A68381D0D4B0E497E
:100E000002F024F903469AB2391D4FF47A730B4865
:100E100001F07FFF4FF40061094800F016FF034B1B
:100E200000221A6000BF3837BD4680BD9C000020FC
:100E30003C010020A047000834470008F8000020CB
:100E40000008014080B500AF00F0E4FB00F05FF95E
:100E500000F046F800F0F6F800F07EF800F0C8F870
:100E6000164801F075FB00220121154800F064F9D5
:100E700032220221134800F05FF964220321124854
:100E800000F05AF996220421104800F055F9C822C2
:100E900005210F4800F050F9FA2206210D4800F014
:100EA0004BF9012207210C4800F046F901220821E4
:100EB0000A4800F041F900F0F9F9FCE7B000002021
:100EC0002D0C0008750C0008BD0C0008050D00086D
:100ED000510D00089D0D0008E90D0008690A000881
:100EE00080B590B000AF07F1180328220021184602
:100EF00002F0A4F83B1D00221A605A609A60DA6082
:100F00001A610223BB610123BB621023FB62002331
:100F10007B6307F11803184600F0B0FE0346002B70
:100F200001D000F0EFF80F237B600023BB600023AB
:100F3000FB6000233B6100237B613B1D00211846C1
:100F400001F01EF90346002B01D000F0DBF800BFD2
:100F50004037BD4680BD000080B586B000AF07F1C8
:100F6000080300221A605A609A60DA603B46002249
:100F70001A605A601D4B4FF080421A601B4B41F6BD
:100F80003F725A60194B00229A60184B0922DA60AE
:100F9000164B00221A61154B00229A61134801F08A
:100FA00087FA0346002B01D000F0ACF84FF48053D1
:100FB000BB6007F1080319460C4801F01DFC03460D
:100FC000002B01D000F09EF800233B6000237B60E3
:100FD0003B461946054801F0E5FD0346002B01D0CC
:100FE00000F090F800BF1837BD4680BDB00000206B
:100FF00080B500AF114B124A1A60104B4FF41652D5
:101000005A600E4B00229A600C4B0022DA600B4BA8
:1010100000221A61094B0C225A61084B00229A6186
:10102000064B0022DA61054801F026FE0346002B3C
:1010300001D000F067F800BF80BD00BFF8000020BD
:101040000044004080B586B000AF07F108030022DD
:101050001A605A609A60DA601E4B9B691D4A43F021
:10106000100393611B4B9B6903F010037B607B684B
:10107000184B9B69174A43F004039361154B9B6916
:1010800003F004033B603B6800224FF47E6112488A
:1010900000F0C3FD4FF40053BB600023FB6001234D
:1010A0003B6107F1080319460C4800F023FC4FF49C
:1010B0007E63BB600123FB6000233B6102237B61F5
:1010C00007F108031946044800F014FC00BF183764
:1010D000BD4680BD001002400008014000100140E4
:1010E00080B582B000AF786000F072F8044B1B68E6
:1010F0000A33034A136000BF0837BD4680BD00BFF6
:101100003C01002080B400AF72B600BFFEE780B59E
:1011100082B000AF0023FB7106E0FB79184600F0B7
:101120000FF9FB790133FB71FB79272BF5D900BF50
:1011300000BF0837BD4680BD80B487B000AFF860FF
:10114000B9607A600023FB7502E0FB7D0133FB751B
:10115000FA7D1E4913469B0013449B000B441B68F9
:10116000002B02D0FB7D272BEFD9FB7D282B27D02E
:10117000FA7D164913469B0013449B000B44FA6802
:101180001A60FA7D114913469B0013449B000B44DF
:101190000433BA681A60FA7D0C4913469B00134465
:1011A0009B000B4408337A681A60FA7D074913469E
:1011B0009B0013449B000B440C3300221A7000E088
:1011C00000BF1C37BD4680BC704700BF40010020F7
:1011D00080B483B000AF0023FB715CE0FA79324940
:1011E00013469B0013449B000B441B68002B4FD0FD
:1011F000FA792D4913469B0013449B000B4404339A
:101200001B68002B32D1FA79274913469B001344FF
:101210009B000B440C331B78FA790133D8B2224976
:1012200013469B0013449B000B440C3302461A7078
:10123000FA791D4913469B0013449B000B44083365
:101240001B68002B24D0F979FA7917480B469B00CC
:101250000B449B00034408331968134813469B0052
:1012600013449B0003440433196011E0FA790E49DA
:1012700013469B0013449B000B4404331B68591E08
:10128000094813469B0013449B0003440433196030
:10129000FB790133FB71FB79272B9FD900BF00BF7E
:1012A0000C37BD4680BC70474001002080B582B03D
:1012B00000AF0023FB7139E0FA79204913469B0007
:1012C00013449B000B440C331B78002B2BD0FA7972
:1012D0001A4913469B0013449B000B441B68984714
:1012E000FA79164913469B0013449B000B440C33B8
:1012F0001B78013BD8B2114913469B0013449B0055
:101300000B440C3302461A70FA790C4913469B00C1
:1013100013449B000B4408331B68002B03D1FB795B
:10132000184600F00DF8FB790133FB71FB79272B90
:10133000C2D900BF00BF0837BD4680BD40010020B4
:1013400080B483B000AF786015497A6813469B007B
:1013500013449B000B4400221A6011497A6813461B
:101360009B0013449B000B44043300221A600C4979
:101370007A6813469B0013449B000B4408330022F9
:101380001A6007497A6813469B0013449B000B447C
:101390000C3300221A7000BF0C37BD4680BC70476A
:1013A0004001002080B483B000AF7860054A7B68BC
:1013B0001360054B00221A6000BF0C37BD4680BC8D
:1013C000704700BF640400206004002080B483B034
:1013D00000AF0E4B9B690D4A43F0010393610B4B29
:1013E0009B6903F001037B607B68084BDB69074A5C
:1013F00043F08053D361054BDB6903F080533B60BE
:101400003B6800BF0C37BD4680BC704700100240EF
:1014100080B584B000AF78607B681B68B3F1804F03
:1014200013D10C4BDB690B4A43F00103D361094B29
:10143000DB6903F00103FB60FB68002200211C2034
:1014400000F021FA1C2000F03AFA00BF1037BD4628
:1014500080BD00BF0010024080B588B000AF78604A
:1014600007F1100300221A605A609A60DA607B6804
:101470001B681B4A93422FD11A4BDB69194A43F46C
:101480000033D361174BDB6903F40033FB60FB6867
:10149000144B9B69134A43F004039361114B9B69FE
:1014A00003F00403BB60BB6804233B6102237B6140
:1014B0000323FB6107F1100319460B4800F01AFAE9
:1014C00008233B6100237B610023BB6107F110030C
:1014D0001946054800F00EFA00BF2037BD4680BD12
:1014E00000440040001002400008014080B400AFFA
:1014F000FEE780B400AFFEE780B400AFFEE780B443
:1015000000AFFEE780B400AFFEE780B400AF00BFDD
:10151000BD4680BC704780B400AF00BFBD4680BCF4
:10152000704780B400AF00BFBD4680BC704780B537
:1015300000AF00F0B5F800BF80BD000080B500AF7F
:10154000024801F051F800BF80BD00BFB00000208C
:1015500080B586B000AF7860144A154BD31A7B6112
:101560007B693B61134B1B68002B02D1114B124A64
:101570001A60104B1A687B6813443A699A4207D282
:1015800001F032FD03460C221A604FF0FF3309E0F0
:10159000084B1B68FB60074B1A687B681344054ABD
:1015A0001360FB6818461837BD4680BD0028002030
:1015B00000040000680400208004002080B400AF14
:1015C00000BFBD4680BC70470C480D490D4A002342
:1015D00002E0D458C4500433C4188C42F9D30A4AE8
:1015E0000A4C002301E013600432A242FBD3FFF750
:1015F000E5FF01F0FFFCFFF725FC7047000000202D
:10160000700000204848000870000020800400207E
:10161000FEE7000080B500AF084B1B68074A43F0A7
:1016200010031360032000F023F90F2000F008F8E6
:10163000FFF7CCFE0023184680BD00BF002002400B
:1016400080B582B000AF7860124B1A68124B1B78DD
:1016500019464FF47A73B3FBF1F3B2FBF3F3184678
:1016600000F03BF90346002B01D001230EE07B681C
:101670000F2B0AD8002279684FF0FF3000F003F9F1
:10168000064A7B681360002300E0012318460837F0
:10169000BD4680BD0000002008000020040000209E
:1016A00080B400AF054B1B781A46054B1B681344EA
:1016B000034A136000BFBD4680BC7047080000208D
:1016C0006C04002080B400AF024B1B681846BD4676
:1016D00080BC70476C04002080B485B000AF786097
:1016E0007B6803F00703FB600C4BDB68BB60BA68E8
:1016F0004FF6FF031340BB60FB681A02BB6813433D
:1017000043F0BF6343F40033BB60044ABB68D3605B
:1017100000BF1437BD4680BC704700BF00ED00E03D
:1017200080B400AF044BDB681B0A03F007031846C4
:10173000BD4680BC704700BF00ED00E080B483B0C0
:1017400000AF0346FB7197F90730002B0BDBFB79E9
:1017500003F01F02064997F907305B09012000FAE0
:1017600002F241F8232000BF0C37BD4680BC704711
:1017700000E100E080B483B000AF03463960FB7144
:1017800097F90730002B0ADB3B68DAB20C4997F96E
:1017900007301201D2B20B4483F800230AE03B6801
:1017A000DAB20849FB7903F00F03043B1201D2B20D
:1017B0000B441A7600BF0C37BD4680BC704700BF93
:1017C00000E100E000ED00E080B489B000AFF86017
:1017D000B9607A60FB6803F00703FB61FB69C3F142
:1017E0000703042B28BF0423BB61FB690433062BCA
:1017F00002D9FB69033B00E000237B614FF0FF321D
:10180000BB6902FA03F3DA43BB681A407B699A406A
:101810004FF0FF317B6901FA03F3D9437B680B403A
:10182000134318462437BD4680BC704780B582B04C
:1018300000AF78607B68013BB3F1807F01D3012367
:101840000FE00A4A7B68013B53600F214FF0FF30E5
:10185000FFF790FF054B00229A60044B07221A60A5
:10186000002318460837BD4680BD00BF10E000E0E9
:1018700080B582B000AF78607868FFF72DFF00BFB9
:101880000837BD4680BD80B586B000AF0346B9605D
:101890007A60FB7300237B61FFF742FF78617A680F
:1018A000B9687869FFF790FF024697F90F30114643
:1018B0001846FFF75FFF00BF1837BD4680BD80B5F3
:1018C00082B000AF0346FB7197F907301846FFF767
:1018D00035FF00BF0837BD4680BD80B582B000AF80
:1018E00078607868FFF7A2FF034618460837BD46C0
:1018F00080BD000080B48BB000AF786039600023F9
:101900007B6200233B6261E101227B6A02FA03F3FE
:10191000FB613B681B68FA691340BB61BA69FB69EC
:101920009A4240F050813B685B68974A93425ED090
:10193000954A934275D8954A934258D0934A934218
:101940006FD8934A934252D0914A934269D8914AB0
:1019500093424CD08F4A934263D88F4A934246D0E9
:101960008D4A93425DD8122B2AD8122B59D801A246
:1019700052F823F0EF190008C9190008DB19000814
:101980001D1A0008231A0008231A0008231A000849
:10199000231A0008231A0008231A0008231A000833
:1019A000231A0008231A0008231A0008231A000823
:1019B000231A0008231A0008D1190008E5190008A5
:1019C000764A934213D02CE03B68DB683B6229E007
:1019D0003B68DB6804333B6224E03B68DB68083328
:1019E0003B621FE03B68DB680C333B621AE03B68FC
:1019F0009B68002B02D104233B6213E03B689B6889
:101A0000012B05D108233B627B68FA691A6109E062
:101A100008233B627B68FA695A6103E000233B625A
:101A200000E000BFBB69FF2B01D87B6801E07B6849
:101A300004337B61BB69FF2B02D87B6A9B0002E009
:101A40007B6A083B9B003B617B691A680F213B69FD
:101A500001FA03F3DB431A40396A3B6901FA03F3E5
:101A60001A437B691A603B685B6803F08053002B64
:101A700000F0A9804A4B9B69494A43F001039361F6
:101A8000474B9B6903F00103BB60BB68454A7B6A17
:101A90009B08023352F82330FB607B6A03F0030398
:101AA0009B000F2202FA03F3DB43FA681340FB604A
:101AB0007B683D4A93420DD07B683C4A934207D0F5
:101AC0007B683B4A934201D1022304E0032302E0F6
:101AD000012300E000237A6A02F00302920093409F
:101AE000FA681343FB602F497B6A9B080233FA684C
:101AF00041F823203B685B6803F48033002B06D059
:101B00002C4B1A682B49BB6913430B6006E0294B29
:101B10001A68BB69DB43274913400B603B685B686D
:101B200003F40033002B06D0224B5A682149BB69CD
:101B300013434B6006E01F4B5A68BB69DB431D49EA
:101B400013404B603B685B6803F48013002B06D0A6
:101B5000184B9A681749BB6913438B6006E0154B15
:101B60009A68BB69DB43134913408B603B685B6831
:101B700003F40013002B1FD00E4BDA680D49BB692C
:101B80001343CB601FE000BF000032100000311093
:101B9000000022100000211000001210000011109F
:101BA000001002400000014000080140000C01400C
:101BB00000100140000401400B4BDA68BB69DB43B5
:101BC00009491340CB607B6A01337B623B681A682A
:101BD0007B6A22FA03F3002B7FF496AE00BF00BFAE
:101BE0002C37BD4680BC70470004014080B485B0EE
:101BF00000AF78600B467B807B689A687B881340D7
:101C0000002B02D00123FB7301E00023FB73FB7B5D
:101C100018461437BD4680BC704780B483B000AF0F
:101C200078600B467B8013467B707B78002B03D05B
:101C30007A887B681A6103E07B881A047B681A61E2
:101C400000BF0C37BD4680BC704780B485B000AF84
:101C500078600B467B807B68DB68FB607A88FB687A
:101C600013401A04FB68D9437B880B401A437B68F6
:101C70001A6100BF1437BD4680BC704780B586B07E
:101C800000AF78607B68002B01D1012372E27B6892
:101C90001B6803F00103002B00F08780924B5B6808
:101CA00003F00C03042B0CD08F4B5B6803F00C0388
:101CB000082B12D18C4B5B6803F48033B3F5803F63
:101CC0000BD1894B1B6803F40033002B6CD07B686D
:101CD0005B68002B68D101234CE27B685B68B3F53D
:101CE000803F06D1804B1B687F4A43F480331360EA
:101CF0002EE07B685B68002B0CD17B4B1B687A4A1B
:101D000023F480331360784B1B68774A23F48023D5
:101D100013601DE07B685B68B3F5A02F0CD1724B9C
:101D20001B68714A43F4802313606F4B1B686E4A33
:101D300043F4803313600BE06B4B1B686A4A23F457
:101D400080331360684B1B68674A23F48023136059
:101D50007B685B68002B13D0FFF7B4FC386108E0A8
:101D6000FFF7B0FC02463B69D31A642B01D9032369
:101D700000E25D4B1B6803F40033002BF0D014E04D
:101D8000FFF7A0FC386108E0FFF79CFC02463B69C6
:101D9000D31A642B01D90323ECE1534B1B6803F4E2
:101DA0000033002BF0D100E000BF7B681B6803F01C
:101DB0000203002B63D04C4B5B6803F00C03002B39
:101DC0000BD0494B5B6803F00C03082B1CD1464B2E
:101DD0005B6803F48033002B16D1434B1B6803F080
:101DE0000203002B05D07B681B69012B01D0012366
:101DF000C0E13D4B1B6823F0F8027B685B69DB00A8
:101E0000394913430B603AE07B681B69002B20D0F3
:101E1000364B01221A60FFF755FC386108E0FFF7E6
:101E200051FC02463B69D31A022B01D90323A1E1DD
:101E30002D4B1B6803F00203002BF0D02A4B1B68CC
:101E400023F0F8027B685B69DB00274913430B60D2
:101E500015E0264B00221A60FFF734FC386108E0D9
:101E6000FFF730FC02463B69D31A022B01D903234A
:101E700080E11D4B1B6803F00203002BF0D17B684F
:101E80001B6803F00803002B3AD07B689B69002B8A
:101E900019D0174B01221A60FFF714FC386108E0D3
:101EA000FFF710FC02463B69D31A022B01D903232A
:101EB00060E10D4B5B6A03F00203002BF0D00120C0
:101EC00000F0D8FA1CE00A4B00221A60FFF7FAFB78
:101ED00038610FE0FFF7F6FB02463B69D31A022B8D
:101EE00008D9032346E100BF00100240000042422F
:101EF00080044242924B5B6A03F00203002BE9D15B
:101F00007B681B6803F00403002B00F0A68000230D
:101F1000FB758B4BDB6903F08053002B0DD1884B95
:101F2000DB69874A43F08053D361854BDB6903F05B
:101F30008053BB60BB680123FB75824B1B6803F4B5
:101F40008073002B18D17F4B1B687E4A43F480734B
:101F50001360FFF7B7FB386108E0FFF7B3FB0246F9
:101F60003B69D31A642B01D9032303E1754B1B682A
:101F700003F48073002BF0D07B68DB68012B06D163
:101F80006F4B1B6A6E4A43F0010313622DE07B68BE
:101F9000DB68002B0CD16A4B1B6A694A23F00103F2
:101FA0001362674B1B6A664A23F0040313621CE04A
:101FB0007B68DB68052B0CD1614B1B6A604A43F0E0
:101FC000040313625E4B1B6A5D4A43F00103136214
:101FD0000BE05B4B1B6A5A4A23F001031362584B18
:101FE0001B6A574A23F0040313627B68DB68002BEB
:101FF00015D0FFF767FB38610AE0FFF763FB024685
:102000003B69D31A41F28832934201D90323B1E0EC
:102010004B4B1B6A03F00203002BEED014E0FFF7DA
:1020200051FB38610AE0FFF74DFB02463B69D31ACA
:1020300041F28832934201D903239BE0404B1B6A53
:1020400003F00203002BEED1FB7D012B05D13C4BAD
:10205000DB693B4A23F08053D3617B68DB69002B4B
:1020600000F08780364B5B6803F00C03082B61D0CF
:102070007B68DB69022B46D1334B00221A60FFF7E5
:1020800021FB386108E0FFF71DFB02463B69D31ACC
:10209000022B01D903236DE0294B1B6803F0007369
:1020A000002BF0D17B681B6AB3F5803F08D1244B2D
:1020B0005B6823F400327B689B68214913434B60C3
:1020C0001F4B5B6823F474127B68196A7B685B6A38
:1020D0000B431B4913434B601B4B01221A60FFF754
:1020E000F1FA386108E0FFF7EDFA02463B69D31ACE
:1020F000022B01D903233DE0114B1B6803F0007351
:10210000002BF0D035E0104B00221A60FFF7DAFA0E
:10211000386108E0FFF7D6FA02463B69D31A022B72
:1021200001D9032326E0064B1B6803F00073002B44
:10213000F0D11EE07B68DB69012B07D1012319E098
:102140000010024000700040600042420B4B5B6890
:10215000FB60FB6803F480327B681B6A9A4206D1FD
:10216000FB6803F470127B685B6A9A4201D001231A
:1021700000E0002318461837BD4680BD001002401D
:1021800080B584B000AF786039607B68002B01D1E6
:102190000123D0E06A4B1B6803F007033A689A42B8
:1021A00010D9674B1B6823F0070265493B6813434E
:1021B0000B60634B1B6803F007033A689A4201D037
:1021C0000123B8E07B681B6803F00203002B20D0DA
:1021D0007B681B6803F00403002B05D0594B5B6838
:1021E000584A43F4E06353607B681B6803F00803BC
:1021F000002B05D0534B5B68524A43F46053536045
:10220000504B5B6823F0F0027B689B684D49134399
:102210004B607B681B6803F00103002B40D07B6898
:102220005B68012B07D1474B1B6803F40033002B7D
:1022300015D101237FE07B685B68022B07D1414BFE
:102240001B6803F00073002B09D1012373E03D4BA1
:102250001B6803F00203002B01D101236BE0394B13
:102260005B6823F003027B685B68364913434B606D
:10227000FFF728FAF8600AE0FFF724FA0246FB6845
:10228000D31A41F28832934201D9032353E02D4BF4
:102290005B6803F00C027B685B689B009A42EBD1A1
:1022A000274B1B6803F007033A689A4210D2244B6D
:1022B0001B6823F0070222493B6813430B60204B45
:1022C0001B6803F007033A689A4201D0012332E009
:1022D0007B681B6803F00403002B08D0194B5B6874
:1022E00023F4E0627B68DB68164913434B607B682C
:1022F0001B6803F00803002B09D0124B5B6823F422
:1023000060527B681B69DB000E4913434B6000F091
:1023100021F802460B4B5B681B0903F00F030A49C7
:10232000CB5C22FA03F3094A1360094B1B68184679
:10233000FFF786F9002318461037BD4680BD00BF61
:102340000020024000100240C447000800000020A6
:102350000400002090B48AB000AF294B3C1D0FCB85
:1023600084E80F0040F201233B800023FB6100233F
:10237000BB6100237B6200237B6100233B62214B16
:102380005B68FB61FB6903F00C03042B02D0082B94
:1023900003D02BE01C4B3B622BE0FB699B0C03F052
:1023A0000F0328333B4413F8243C7B61FB6903F49F
:1023B0008033002B12D0134B5B685B0C03F00103DE
:1023C00028333B4413F8283CBB617B690E4A03FB6E
:1023D00002F2BB69B2FBF3F37B6204E07B690B4A58
:1023E00002FB03F37B627B6A3B6202E0064B3B62CB
:1023F00000BF3B6A18462837BD4690BC704700BFF7
:10240000B44700080010024000127A0000093D00A5
:1024100080B400AF024B1B681846BD4680BC7047B5
:102420000000002080B500AFFFF7F2FF0246054B29
:102430005B681B0A03F007030349CB5C22FA03F332
:10244000184680BD00100240D447000880B500AF98
:10245000FFF7DEFF0246054B5B68DB0A03F007036C
:102460000349CB5C22FA03F3184680BD00100240FA
:10247000D447000880B485B000AF78600A4B1B6871
:102480000A4AA2FB03235B0A7A6802FB03F3FB60A0
:1024900000BFFB685A1EFA60002BF9D100BF00BFD5
:1024A0001437BD4680BC704700000020D34D621039
:1024B00080B582B000AF78607B68002B01D101232A
:1024C00041E07B6893F83D30DBB2002B06D17B689E
:1024D000002283F83C207868FEF79AFF7B6802228E
:1024E00083F83D207B681A687B68043319461046E0
:1024F00000F06AFA7B68012283F846207B6801229B
:1025000083F83E207B68012283F83F207B6801220C
:1025100083F840207B68012283F841207B680122F8
:1025200083F842207B68012283F843207B680122E4
:1025300083F844207B68012283F845207B680122D0
:1025400083F83D20002318460837BD4680BD0000B3
:1025500080B485B000AF78607B6893F83D30DBB223
:10256000012B01D0012335E07B68022283F83D2056
:102570007B681B68DA687B681B6842F00102DA60DE
:102580007B681B68164A934209D07B681B68B3F1CD
:10259000804F04D07B681B68124A934211D17B683C
:1025A0001B689B6803F00703FB60FB68062B10D0D9
:1025B0007B681B681A687B681B6842F001021A601E
:1025C00007E07B681B681A687B681B6842F00102A1
:1025D0001A60002318461437BD4680BC704700BF00
:1025E000002C01400004004080B582B000AF78604C
:1025F0007B681B681B6903F00203022B22D17B68F6
:102600001B68DB6803F00203022B1BD17B681B688D
:102610006FF002021A617B6801221A777B681B68DF
:102620009B6903F00303002B03D0786800F0B1F935
:1026300005E0786800F0A4F9786800F0B3F97B68E9
:1026400000221A777B681B681B6903F00403042BC4
:1026500022D17B681B68DB6803F00403042B1BD1C9
:102660007B681B686FF004021A617B6802221A778C
:102670007B681B689B6903F44073002B03D0786868
:1026800000F087F905E0786800F07AF9786800F0E2
:1026900089F97B6800221A777B681B681B6903F045
:1026A0000803082B22D17B681B68DB6803F0080352
:1026B000082B1BD17B681B686FF008021A617B68CE
:1026C00004221A777B681B68DB6903F00303002B85
:1026D00003D0786800F05DF905E0786800F050F903
:1026E000786800F05FF97B6800221A777B681B68C6
:1026F0001B6903F01003102B22D17B681B68DB6879
:1027000003F01003102B1BD17B681B686FF01002C5
:102710001A617B6808221A777B681B68DB6903F4FF
:102720004073002B03D0786800F033F905E0786837
:1027300000F026F9786800F035F97B6800221A77F6
:102740007B681B681B6903F00103012B0ED17B68BA
:102750001B68DB6803F00103012B07D17B681B6852
:102760006FF001021A617868FEF7BAFC7B681B689B
:102770001B6903F08003802B0ED17B681B68DB682C
:1027800003F08003802B07D17B681B686FF0800209
:102790001A61786800F067FA7B681B681B6903F0B0
:1027A0004003402B0ED17B681B68DB6803F04003BD
:1027B000402B07D17B681B686FF040021A61786874
:1027C00000F0F9F87B681B681B6903F02003202BDD
:1027D0000ED17B681B68DB6803F02003202B07D138
:1027E0007B681B686FF020021A61786800F032FA8B
:1027F00000BF0837BD4680BD80B584B000AF7860AB
:1028000039607B6893F83C30012B01D10223B3E09F
:102810007B68012283F83C207B68022283F83D20FC
:102820007B681B689B68FB60FB6823F07703FB6099
:10283000FB6823F47F43FB607B681B68FA689A603F
:102840003B681B68B3F5005F3ED0B3F5005F00F254
:102850008780B3F5805F00F08580B3F5805F7FD817
:10286000702B1AD0702B7BD8602B50D0602B77D870
:10287000502B3CD0502B73D8402B58D0402B6FD8C6
:10288000302B64D0302B6BD8202B60D0202B67D816
:10289000002B5CD0102B5AD062E07B6818683B6834
:1028A00099683B685A683B68DB6800F05CF97B68B4
:1028B0001B689B68FB60FB6843F07703FB607B68E9
:1028C0001B68FA689A604EE07B6818683B689968F4
:1028D0003B685A683B68DB6800F045F97B681B6819
:1028E0009A687B681B6842F480429A603BE07B6890
:1028F00018683B6859683B68DB681A4600F0BCF80A
:102900007B681B685021184600F013F92BE07B68A8
:1029100018683B6859683B68DB681A4600F0DAF8CB
:102920007B681B686021184600F003F91BE07B6898
:1029300018683B6859683B68DB681A4600F09CF8E9
:102940007B681B684021184600F0F3F80BE07B68B9
:102950001A683B681B681946104600F0EAF802E066
:1029600000BF00E000BF7B68012283F83D207B6848
:10297000002283F83C20002318461037BD4680BD56
:1029800080B483B000AF786000BF0C37BD4680BC18
:10299000704780B483B000AF786000BF0C37BD468D
:1029A00080BC704780B483B000AF786000BF0C3744
:1029B000BD4680BC704780B483B000AF786000BF74
:1029C0000C37BD4680BC704780B485B000AF7860DE
:1029D00039607B681B68FB607B68254A934207D09F
:1029E0007B68B3F1804F03D07B68224A934208D1C1
:1029F000FB6823F07003FB603B685B68FA68134375
:102A0000FB607B681A4A934207D07B68B3F1804F22
:102A100003D07B68174A934208D1FB6823F44073C4
:102A2000FB603B68DB68FA681343FB60FB6823F0DC
:102A300080023B685B691343FB607B68FA681A603D
:102A40003B689A687B68DA623B681A687B689A62BE
:102A50007B68074A934203D13B681A697B681A6313
:102A60007B6801225A6100BF1437BD4680BC7047A5
:102A7000002C01400004004080B487B000AFF86033
:102A8000B9607A60FB681B6A7B61FB681B6A23F094
:102A90000102FB681A62FB689B693B613B6923F09A
:102AA000F0033B617B681B013A6913433B617B691F
:102AB00023F00A037B617A69BB6813437B61FB687F
:102AC0003A699A61FB687A691A6200BF1C37BD4691
:102AD00080BC704780B487B000AFF860B9607A609E
:102AE000FB681B6A23F01002FB681A62FB689B6993
:102AF0007B61FB681B6A3B617B6923F470437B61EC
:102B00007B681B037A6913437B613B6923F0A00355
:102B10003B61BB681B013A6913433B61FB687A69FF
:102B20009A61FB683A691A6200BF1C37BD4680BCD7
:102B3000704780B485B000AF786039607B689B686F
:102B4000FB60FB6823F07003FB603A68FB6813438B
:102B500043F00703FB607B68FA689A6000BF143794
:102B6000BD4680BC704780B487B000AFF860B960E4
:102B70007A603B60FB689B687B617B6923F47F43E1
:102B80007B613B681A027B681A43BB6813437A690E
:102B900013437B61FB687A699A6000BF1C37BD46AE
:102BA00080BC704780B485B000AF786039607B68C6
:102BB00093F83C30012B01D1022341E07B680122D4
:102BC00083F83C207B68022283F83D207B681B68E9
:102BD0005B68FB607B681B689B68BB60FB6823F0DD
:102BE0007003FB603B681B68FA681343FB607B68FB
:102BF0001B68FA685A607B681B68144A934209D0C4
:102C00007B681B68B3F1804F04D07B681B68104A57
:102C100093420CD1BB6823F08003BB603B685B68C8
:102C2000BA681343BB607B681B68BA689A607B68AC
:102C3000012283F83D207B68002283F83C2000239A
:102C400018461437BD4680BC704700BF002C0140B9
:102C50000004004080B483B000AF786000BF0C3740
:102C6000BD4680BC704780B483B000AF786000BFC1
:102C70000C37BD4680BC704780B582B000AF78602D
:102C80007B68002B01D101233FE07B6893F83D3046
:102C9000DBB2002B06D17B68002283F83C207868E9
:102CA000FEF7DAFB7B68242283F83D207B681B68F3
:102CB000DA687B681B6822F40052DA60786800F0FA
:102CC00005F97B681B681A697B681B6822F49042CF
:102CD0001A617B681B685A697B681B6822F02A02AC
:102CE0005A617B681B68DA687B681B6842F4005293
:102CF000DA607B6800221A647B68202283F83D201A
:102D00007B68202283F83E20002318460837BD4602
:102D100080BD80B58AB002AFF860B9603B601346F1
:102D2000FB8000237B61FB6893F83D30DBB2202BF6
:102D30007CD1BB68002B02D0FB88002B01D1012382
:102D400075E0FB6893F83C30012B01D102236EE063
:102D5000FB68012283F83C20FB6800221A64FB68B0
:102D6000212283F83D20FEF7ADFC7861FB68FA88EC
:102D70009A84FB68FA88DA84FB689B68B3F5805F05
:102D800008D1FB681B69002B04D10023FB61BB68E1
:102D9000BB6103E0BB68FB610023BB61FB680022F1
:102DA00083F83C202AE03B6800937B690022802165
:102DB000F86800F040F80346002B01D0032336E00A
:102DC000FB69002B0BD1BB691B881A46FB681B688B
:102DD000C2F308025A60BB690233BB6107E0FB69BA
:102DE0001A78FB681B685A60FB690133FB61FB685A
:102DF000DB8C9BB2013B9AB2FB68DA84FB68DB8C0C
:102E00009BB2002BCFD13B6800937B69002240210D
:102E1000F86800F010F80346002B01D0032306E009
:102E2000FB68202283F83D20002300E0022318469F
:102E30002037BD4680BD80B584B000AFF860B96072
:102E40003B601346FB712CE0BB69B3F1FF3F28D018
:102E5000BB69002B07D0FEF735FC02463B68D31A4E
:102E6000BA699A421DD2FB681B68DA68FB681B6866
:102E700022F4D072DA60FB681B685A69FB681B6831
:102E800022F001025A61FB68202283F83D20FB6892
:102E9000202283F83E20FB68002283F83C20032395
:102EA0000FE0FB681B681A68BB681340BA689A4257
:102EB0000CBF01230023DBB21A46FB799A42C3D030
:102EC000002318461037BD4680BD000080B584B091
:102ED00000AF78607B681B681B6923F440517B68F6
:102EE000DA687B681B680A431A617B689A687B68AA
:102EF0001B691A437B685B691343BB607B681B6873
:102F0000DB6823F4B05323F00C037A681268B968C5
:102F10000B43D3607B681B685B6923F440717B685B
:102F20009A697B681B680A435A617B681B682C4A54
:102F3000934203D1FFF78AFAF86002E0FFF772FAD2
:102F4000F860FA6813469B0013449A001A447B68A1
:102F50005B689B00B2FBF3F3224AA2FB03235B09ED
:102F60001901FA6813469B0013449A001A447B68BF
:102F70005B689B00B2FBF3F21A4BA3FB02035B09F5
:102F8000642000FB03F3D31A1B013233154AA2FB62
:102F900003235B0903F0F0031944FA6813469B000E
:102FA00013449A001A447B685B689B00B2FBF3F2FF
:102FB0000C4BA3FB02035B09642000FB03F3D31A51
:102FC0001B013233074AA2FB03235B0903F00F0204
:102FD0007B681B680A449A6000BF1037BD4680BDFD
:102FE000003801401F85EB51014B1868704700BF46
:102FF0000C00002070B500260C4D0D4C641BA41075
:10300000A64209D101F07EFB00260A4D0A4C641B42
:10301000A410A64205D170BD55F8043B984701366F
:10302000EEE755F8043B98470136F2E740480008C0
:10303000404800084048000844480008034602444D
:10304000934200D1704703F8011BF9E70EB46FF00B
:10305000004100B59CB01DAB029006900791049111
:103060000848094953F8042B0591006802A9019307
:1030700000F068F80022029B1A701CB05DF804EBA7
:1030800003B070470C0000200802FFFF2DE9F04755
:103090008E6882469E420C4690461F4638D88A89E2
:1030A00012F4906F32D0256809690133A5EB01094C
:1030B00065694B4405EB450505EBD5756D109D42E3
:1030C00038BF1D46530531D5294600F06FFB064633
:1030D00050B90C234FF0FF30CAF80030A38943F0F9
:1030E0004003A381BDE8F0874A46216900F0CEFA8B
:1030F000A38923F4906343F08003A38126614E44A7
:1031000026603E466561A5EB0905A560BE4200D973
:103110003E4632464146206800F0C6FAA3680020C9
:103120009B1BA360236833442360DBE72A4600F03F
:10313000B1FB06460028E1D15046216900F0CEFAE5
:10314000C7E700002DE9F04F98468B8907461B061C
:103150000D4614469DB00ED50B6963B9402100F0B1
:1031600025FB2860286120B90C233B604FF0FF301D
:10317000D1E040236B610023099320238DF829308F
:1031800030234FF00109CDF80C80DFF8A4818DF8D1
:103190002A3023469A4613F8012B0AB1252AF9D181
:1031A000BAEB040B0BD05B46224629463846FFF7A4
:1031B0006DFF013000F0AA80099A5A4409929AF8EA
:1031C0000030002B00F0A28000234FF0FF32CDE949
:1031D00005230AF1010A049307938DF853301A93DB
:1031E0005446052214F8011B514800F041FA049A94
:1031F000D8B9D00644BF20238DF85330110744BFFF
:103200002B238DF853309AF800302A2B15D05446D2
:1032100000204FF00A0C079A214611F8013B303B81
:10322000092B4ED9B0B1079214E0A0EB080309FABC
:1032300003F31343A2460493D2E7039B191D1B68B3
:103240000391002BBBBF5B4242F00202079307933E
:10325000B8BF049223782E2B0CD163782A2B35D15A
:10326000039B02341A1D1B680392002BB8BF4FF05A
:10327000FF330593DFF8BCA003225046217800F00D
:10328000F7F940B14023A0EB0A0003FA00F0049BD9
:1032900001340343049314F8011B062226488DF8D9
:1032A000281000F0E5F9002838D0244B1BBB039B05
:1032B000073323F0070308330393099B334409932F
:1032C00067E70C4601200CFB0232A5E700234FF014
:1032D0000A0C194601340593204610F8012B303AA8
:1032E000092A03D9002BC5D00591C3E70446012361
:1032F0000CFB0121F0E703AB00932A463846104B44
:1033000004A9AFF30080421C0646D6D1AB895B0608
:103310003FF52CAF09981DB0BDE8F08F03AB0093CB
:103320002A463846064B04A900F07CF8EBE700BFBC
:10333000DC470008E2470008E647000800000000FC
:103340008D3000082DE9F047164699468A680B69CA
:1033500007469342B8BF1346336091F843200C46AA
:10336000DDF820800AB1013333602368990642BF3B
:10337000336802333360256815F0060506D104F181
:10338000190AE36832689B1AAB4228DC94F84320A0
:10339000131E226818BF012392062DD449463846D1
:1033A00004F14302C047013020D02368E56803F0F0
:1033B0000603042B18BF002532684FF00006A368EF
:1033C00008BFAD1A226908BF25EAE5759342C4BF5C
:1033D0009B1AED181A34B5421AD1002008E00123D7
:1033E000524649463846C047013003D14FF0FF30BE
:1033F000BDE8F0870135C4E73020E11881F84300CB
:103400005A1C94F845102244023382F84310C5E751
:103410000123224649463846C0470130E6D00136EE
:10342000D9E700002DE9FF470F7E9146782F8046AF
:103430000C469A460C9D01F1430207D8622F0AD828
:10344000002F00F0D980582F00F0A48004F142052D
:1034500084F842703AE0A7F16303152BF6D801A176
:1034600051F823F0BD340008D13400084D34000871
:103470004D3400084D3400084D340008D1340008A4
:103480004D3400084D3400084D3400084D34000818
:10349000DF35000801350008C13500084D3400084B
:1034A0004D340008013600084D340008013500088D
:1034B0004D3400084D340008C93500082B681A1D2A
:1034C0001B682A6004F1420584F842300123A4E01D
:1034D00020682968060601F104030AD50E682B60EE
:1034E000002E03DA2D23764284F843300A235E4807
:1034F00019E00E6810F0400F2B6018BF36B2EFE7EE
:103500002B682068191D2960010601D51E6802E09C
:103510004606FBD51E886F2F0CBF08230A2352488E
:10352000002184F843106568002DA8BF2168A560BC
:10353000A4BF21F0040121600EB9002D4DD0154625
:10354000B6FBF3F103FB1167C75D05F8017D374654
:10355000BB420E46F4D9082B0BD12368DE0708D5F1
:10356000236961689942DEBF302305F8013C05F10B
:10357000FF35521B22614B4621464046CDF800A044
:1035800003AAFFF7DFFE01304CD14FF0FF3004B04B
:10359000BDE8F087344881F845702968236851F800
:1035A000046B29601D0614D5DF0744BF43F02003D8
:1035B00023601EB9236823F0200323601023AFE7A4
:1035C000236843F0200323607823284884F845309B
:1035D000E3E7590648BFB6B2E6E71546BBE72B68F6
:1035E0002668181D6169286035061B6801D51960B9
:1035F00002E07006FBD51980002315462361BAE767
:103600002B6800211A1D2A601D686268284600F098
:103610002FF808B1401B606063682361002384F8C1
:103620004330A8E72A46494640462369D04701303F
:10363000ABD023689B0713D4E068039B9842B8BFC4
:103640001846A4E70123324649464046D047013098
:103650009BD00135E36803995B1AAB42F2DCEBE7E0
:10366000002504F11906F5E7ED470008FE470008BC
:10367000034610B5C9B202449342184601D1002056
:1036800003E0047801338C42F6D110BD0A44914224
:1036900000F1FF3300D1704710B511F8014B914292
:1036A00003F8014FF9D110BD884210B501EB0204B7
:1036B00002D98442234607D8431EA14208D011F8FC
:1036C000012B03F8012FF8E7014602448A4200D19A
:1036D00010BD13F8014D02F8014DF7E738B5054666
:1036E000002940D051F8043C0C1F002BB8BFE4184F
:1036F00000F010F91C4A136833B96360146028465F
:10370000BDE8384000F00CB9A34208D92068211860
:103710008B4201BF19685B6809182160EDE71A4602
:103720005B680BB1A342FAD911685018A0420BD1C3
:1037300020680144501883421160E0D118685B682A
:10374000014411605360DAE702D90C232B60D6E7FD
:10375000206821188B4201BF19685B680918216035
:1037600063605460CBE738BD7004002070B50E4E26
:103770000C463168054611B900F0BCF830602146AE
:10378000284600F0B7F8431C0AD0C41C24F00304F8
:10379000A04207D0211A284600F0ACF8013001D130
:1037A0004FF0FF34204670BD740400202DE9F04135
:1037B000CD1C25F0030508350C2D38BF0C25002D38
:1037C000074601DBA94205D90C2300263B603046A1
:1037D000BDE8F0812E4E00F09DF833681C4634BBE6
:1037E00029463846FFF7C2FF431C04464DD13468D2
:1037F0002646002E40D123683146384604EB0308A4
:1038000000F078F880453AD1216803356D1A25F02B
:10381000030508350C2D38BF0C2538462946FFF71F
:10382000A5FF01302BD023682B4423600EE02268D3
:10383000521B1ED40B2A16D96119A342256018BF4A
:103840005960636808BF316062514B60384604F1CB
:103850000B0600F065F826F00706231DF21AB6D015
:103860009B1BA350B3E76268A3420CBF32605A604F
:10387000ECE723466468B2E734467668B9E70C2380
:1038800038463B6000F04CF8A1E72560DEE700BF5A
:10389000700400202DE9F041804614460E4621B9FF
:1038A0001146BDE8F041FFF781BF2AB9FFF716FFC7
:1038B00025462846BDE8F08100F038F884420746E6
:1038C00002D8B4EB500F12D821464046FFF76EFFE6
:1038D00005460028EDD0BC422246314628BF3A4674
:1038E000FFF7D4FE31464046FFF7F8FEE1E73546E4
:1038F000DFE7000038B50023054D044608462B607D
:10390000FDF726FE431C02D12B6803B1236038BDAE
:1039100078040020014800F011B800BF7C040020AA
:10392000014800F00CB800BF7C04002051F8043CB2
:10393000181F002BBCBF0B58C0187047704770474A
:103940002DE9F84314461D468046894600F060F88C
:10395000224606460F462B4620462946FDF74EF8DE
:10396000C8BB0022002340464946FDF715F8B8B110
:103970000022002320462946FDF70EF8002841D1F9
:103980002046294600F039FE28B3002200232046B5
:103990002946FDF70BF8F0B1FFF726FB222319E0CB
:1039A0003046394600F029FEC8B94046494600F085
:1039B00024FEA0B12046294600F01FFE78B1324611
:1039C0003B4630463946FDF719F80028E4D0FFF7AA
:1039D0000BFB2123036030463946BDE8F883002203
:1039E000002330463946FCF7D7FF0028F3D0404685
:1039F000494600F002FE0028EDD02046294600F09E
:103A0000FCFDC8E70026014FE5E700BF0000F03FDE
:103A10002DE9F04F93B0CDE90223DDE9022727F02D
:103A20000046894656EA0201804611D1031889F4FE
:103A3000002252419942824B934180F0B984DDE9E2
:103A4000022340464946FCF789FB83468C466FE0DB
:103A50007C4B29F000449C424D46824606DC01D155
:103A60000028ECD19E4201DC0FD172B105F1404536
:103A700005F5801555EA0A05E1D1DDE90232DB18CA
:103A800082F4002252419D42D5E7002D39DA6E4B77
:103A90009E4252DCA3F154739E4240F39C84331542
:103AA000A3F2FF33142B0FDDC3F1340322FA03F129
:103AB00001FA03F3934240F08E8401F00101C1F159
:103AC0000203009382B15DE0002A59D1C3F11403CF
:103AD00046FA03F101FA03F3B34240F0798401F0AE
:103AE0000101C1F102030093584B9E4232D1002FD5
:103AF00080F26A8442464B4600205449FCF70EFE91
:103B0000A3E700230093002A3CD14E4B9E42EBD109
:103B100004F1404303F5801353EA0A0300F048849C
:103B20004B4B9C420BDD002FC0F24884DDE902BC08
:103B30005846614613B0BDE8F08F0223E2E7002F3C
:103B40004FF0000B4FF0000CF2DADDE902B303F1A5
:103B5000004CEDE7B7F1804F06D142464B46404658
:103B60004946FCF7B1FC70E73A4B9F420AD1002D61
:103B700008DB4046494613B0BDE8F04F00F05EBC9C
:103B8000002300934046494600F034FD83468C46AE
:103B9000BAF1000F28D124B12C4B25F040429A42B3
:103BA00022D1002F07DA5A46634600202749FCF746
:103BB000B5FD83468C46002DBADA009B04F14044E3
:103BC00004F58014234308D15A466346584661469B
:103BD000FCF7C2FA02460B4690E7009B012BA7D1E7
:103BE0000CF100439C46A3E7EB0F013B0C930C9AAE
:103BF000009B134304D142464B4640464946E7E703
:103C0000154B9E4240F3F68003F104739E42104B25
:103C100009DD9C420CDC002F0CDA002013B0BDE85B
:103C2000F04F00F0E2BC9C42F5DB084B9C4215DDF6
:103C3000002FF2DC002013B0BDE8F04F00F0D0BC44
:103C40000000F0FF0000F07FFFFF3F430000F03F67
:103C5000FFFFEF3F0000E03F0000E041614600222F
:103C600058465F4BFCF778FA55A3D3E90023044686
:103C70000D46FCF729FC54A3D3E9002306460F4662
:103C800020462946FCF720FC002282468B4620462F
:103C90002946544BFCF718FC02460B464CA1D1E9CF
:103CA0000001FCF759FA22462B46FCF70DFC0246B0
:103CB0000B4600204C49FCF74FFA22462B46804623
:103CC000894620462946FCF7FFFB02460B46404644
:103CD0004946FCF7F9FB40A3D3E90023FCF7F4FBCA
:103CE00002460B4650465946FCF736FA4FF0000A9A
:103CF00002460B4604460D4630463946FCF72EFA7E
:103D000032463B4650468B46FCF726FA02460B46A7
:103D100020462946FCF720FADDE90267009B0C9A51
:103D2000013B13434FF000064FF000020CBF2F4B36
:103D30002B4B04460D46DDE90201CDE90023324656
:103D40003B46FCF709FA52465B46FCF7BDFBDDE952
:103D500002238046894620462946FCF7B5FB0246E9
:103D60000B4640464946FCF7F9F932463B46804649
:103D7000894650465946FCF7A7FB04460D460B46BC
:103D8000024649464046CDE90245FCF7E7F9184BA3
:103D9000824699420F460E4640F3E58201F13F43C9
:103DA00003F5E003034300F0DF81DDE900010022B9
:103DB0000023FCF7FBFD003818BF01202EE700BFF1
:103DC000000000604715F73F44DF5DF80BAE543E3E
:103DD000555555555555D53FFE822B654715F73F2F
:103DE0000000F03F0000D03F0000E03F0000F0BFC7
:103DF000FFFF8F40D24B00222B4043B9584661460B
:103E0000D04BFCF761FB6FF0340283460C46231560
:103E1000A3F2FF3313440B93CB4BC4F3130444F0CE
:103E20007F559C4245F4401508DDC84B9C4240F349
:103E300099810B9BA5F5801501330B930026F300A8
:103E40000D93C34B584603EBC603D3E90034294610
:103E50001A46CDE908342346FCF77EF9DA462B46AC
:103E60005246CDE90E01DDE90801FCF777F902467B
:103E70000B460020B749FCF751FC02460B46CDE942
:103E80001001DDE90E01FCF71FFBCDE90601DDE9BC
:103E90000634CDE9043400230022AB466D1045F012
:103EA0000055049305F50025DDE9048905EB8643FB
:103EB0004046494614461D46FCF706FB02460B46A3
:103EC000DDE90E01FCF748F9DDE9082306460F4657
:103ED00020462946FCF740F902460B465046594613
:103EE000FCF73AF942464B46FCF7EEFA02460B461F
:103EF00030463946FCF730F9DDE91023FCF7E4FAE7
:103F0000DDE90623CDE9080110461946FCF7DCFA85
:103F100079A3D3E9002304460D46FCF7D5FA78A32C
:103F2000D3E90023FCF71AF922462B46FCF7CCFA1A
:103F300075A3D3E90023FCF711F922462B46FCF7C1
:103F4000C3FA73A3D3E90023FCF708F922462B46F2
:103F5000FCF7BAFA70A3D3E90023FCF7FFF8224676
:103F60002B46FCF7B1FA6EA3D3E90023FCF7F6F871
:103F7000224606460F462B4620462946FCF7A4FA61
:103F800002460B4630463946FCF79EFA04460D467B
:103F9000DDE9060142464B46FCF7E0F8DDE908237F
:103FA000FCF792FA22462B46FCF7D8F84246064622
:103FB0000F464B4640464946FCF786FA0022664BC0
:103FC00082468B46FCF7CAF832463B46FCF7C6F8F9
:103FD00000240D4622460B4640464946FCF774FA3B
:103FE000002280468946204629465B4BFCF7B4F800
:103FF00052465B46FCF7B0F802460B46304639465F
:10400000FCF7AAF8DDE90623FCF75EFA224606462D
:104010000F46DDE908012B46FCF756FA02460B462F
:1040200030463946FCF79AF8002406460F46024609
:104030000B4640464946FCF791F83BA3D3E90023E1
:1040400020460D46FCF740FA42464B46CDE90601B4
:1040500020462946FCF780F802460B463046394692
:10406000FCF77AF832A3D3E90023FCF72DFA32A348
:10407000D3E9002306460F4620462946FCF724FADA
:1040800002460B4630463946FCF768F80D9A334B2A
:104090004FF0000A1344D3E90023FCF75FF8804691
:1040A0000B988946FCF7A6F904460D460D9A2C4B51
:1040B0001344D3E900674246DDE906014B46FCF7AD
:1040C0004DF832463B46FCF749F822462B46FCF7B2
:1040D00045F822462B4650468B46FCF73DF83246C3
:1040E0003B46FCF739F8DDE90623FCF735F80246D4
:1040F0000B46404649460DE6EF4E454A287ECA3FEC
:1041000065DBC9934A86CD3F01411DA96074D13F4B
:104110004D268F515555D53FFFAB6FDBB66DDB3F5D
:10412000033333333333E33F000000E009C7EE3F8E
:10413000FD033ADC09C7EE3FF5015B14E02F3EBEFC
:104140000000F07F000040438E98030079B60B001A
:10415000104800080000F03F000008403048000808
:104160002048000801266AE69DA3D3E900234046C3
:104170004946FBF7F3FF2246CDE904012B465046A2
:104180003946FBF7E9FF02460B46DDE90401FCF77F
:104190002BFC00287FF409AEA34A26F0004393428B
:1041A00040F301814FF4801A00201B15A3F2FE3367
:1041B0004AFA03F33344C3F30A529C4FA2F2FF328C
:1041C0001741C3F3130A23EA0701C2F114024AF4A8
:1041D000801A0B464AFA02FA002E02462946204669
:1041E000B8BFCAF1000AFBF7B7FFCDE90201DDE96C
:1041F0000201002442464B46FBF7B0FF7AA3D3E905
:10420000002320460D46FCF75FF9DDE90223064650
:104210000F4620462946FBF79FFF02460B464046C5
:104220004946FBF799FF72A3D3E90023FCF74CF949
:1042300071A3D3E900238046894620462946FCF72E
:1042400043F902460B4640464946FBF787FF0446C2
:104250000D4602460B4630463946FBF77FFF324695
:104260003B4680468946FBF777FF02460B462046D1
:104270002946FBF771FF424606460F464B4640462D
:104280004946FCF721F95EA3D3E9002304460D4615
:10429000FCF71AF95CA3D3E90023FBF75DFF224684
:1042A0002B46FCF711F95AA3D3E90023FBF756FF7D
:1042B00022462B46FCF708F957A3D3E90023FBF766
:1042C0004BFF22462B46FCF7FFF855A3D3E900230A
:1042D000FBF744FF22462B46FCF7F6F802460B4656
:1042E00040464946FBF738FF04460D4602460B465A
:1042F00040464946FCF7E8F80022CDE902014FF0BC
:10430000804320462946FBF727FF02460B46DDE99E
:104310000201FCF703FA324604460D463B4640468E
:104320004946FCF7D1F832463B46FBF717FF0246F9
:104330000B4620462946FBF70FFF42464B46FBF74C
:104340000BFF02460B4600203949FBF705FF01EB46
:104350000A54B4F5801F29DA524600F055F9DDE918
:104360000023FFF7FEBB334B21F000479F427FF74E
:1043700013AF314B0B44034309D0DDE900010022A8
:104380000023FCF713FB003818BF012053E422463A
:104390002B46FBF7E1FE42464B46FCF71BFB002891
:1043A0003FF4FAAEE9E74FF0000A20E72146D6E7EE
:1043B0004FF0000BDFF878C0FFF7BABB4FF0000BEF
:1043C0004FF0000CFFF7B4BB40464946FFF73DBB3A
:1043D0000092FFF789BB0023FFF773BBAFF30080A8
:1043E000FE822B654715973C00000000432EE63FF8
:1043F000EF39FAFE422EE63F396CA80C615C20BE14
:10440000D0A4BE726937663EF16BD2C541BDBB3EDA
:104410002CDE25AF6A56113F93BDBE166CC1663FB8
:104420003E5555555555C53F0000E03FFFFF0F0075
:104430000000F03FFFCB904000346F3FDFF858C1E1
:104440002DE9F0413CEA010C06460D460C460A46B1
:10445000074603460FD102460B46FCF735F80246E5
:104460000B4630462946FBF779FE06460D46304698
:104470002946BDE8F08100290EDC21F0004C5CEA01
:104480000707F4D041B102460B46FBF765FE024632
:104490000B46FCF743F9E8E7211575D0CC074FF040
:1044A0000004C2F31302A1F2FF3742F480125EBF90
:1044B000D90F5B0001EB4202D90F01EB4202162536
:1044C00020464FF400117F105B0046189642DEBF75
:1044D000921B701864185200013D02EBD3724FEA30
:1044E00051014FEA4303F0D129464FF0200E4FF01F
:1044F0000046824206EB050C02DC13D19C4511D824
:10450000BCF1000F0CEB060543DA002D41DB00F196
:104510000108121A40469C4588BF02F1FF32A3EB06
:104520000C0331444FEAD37CBEF1010E0CEB420286
:104530004FEA43034FEA5606DBD1134306D0481C2B
:104540000BBF71460131013421F0010163104908AC
:1045500003F17F53E20703F5001348BF41F0004128
:104560000E4603EB075582E7DA0A15385B05002A89
:10457000FAD0D5020AD5C1F1200423FA04F44D1E65
:104580008B402243411B89E70846F0E75200013186
:10459000EFE78046BDE700BF0000F07F70B504463E
:1045A0000D461646FEF720FD29460660204670BDE2
:1045B00037B515461C4680B1104603F10041CDE9E0
:1045C0000001DDE9002328462146FBF77DFF22227A
:1045D00003B0BDE83040FFF7E1BF10461946EEE7F3
:1045E00000224FF08053FFF7E3BF00224FF0E0437B
:1045F000FFF7DEBF21F00041704741F0004000F5B9
:104600008010C00F70470000F8B5C1F30A56044689
:104610000D4617460B4696B921F00043034339D0A7
:10462000334B0022FBF750FF324B04469F420D46AE
:104630000FDA2BA3D3E90023FBF746FF06E040F295
:10464000FF7296420AD10246FBF788FD04460D46EA
:1046500020E00B46C1F30A51A1F1360640F2FE728A
:10466000B91991420EDD05F0004444F0FC4141F4DB
:104670005F1141F41051204841F03C011AA3D3E9E5
:104680000023D9E7002908DD23F0FF4323F4E003EA
:1046900043EA015520462946F8BD11F1350F12DADB
:1046A0004CF250339F424FEAD5734FEAC374DCDCBF
:1046B0000BA3D3E9002344F0D27141F4B7310F4882
:1046C00041F01F01B8E723F0FF43363123F4E00344
:1046D00043EA0155204629460022094BACE700BFBA
:1046E00059F3F8C21F6EA5019C7500883CE4377E23
:1046F00000005043B03CFFFF9C75008859F3F8C29E
:104700000000903CF8B500BFF8BC08BC9E4670475E
:0C471000F8B500BFF8BC08BC9E4670471E
:104720003A205461736B2030206469737061746344
:10473000680D0A0025642573000000003A205461CA
:10474000736B20312064697370617463680D0A00B3
:104750003A205461736B2032206469737061746312
:10476000680D0A003A205461736B2033206469732A
:1047700070617463680D0A003A205461736B2034D1
:104780002064697370617463680D0A003A20546193
:10479000736B20352064697370617463680D0A005F
:1047A0003A205461736B20362064697370617463BE
:1047B000680D0A0002030405060708090A0B0C0D20
:1047C0000E0F1010000000000000000001020304A2
:1047D000060708090000000001020304232D302B06
:1047E0002000686C4C0065666745464700303132F2
:1047F0003334353637383941424344454600303149
:1048000032333435363738396162636465660000A7
:10481000000000000000F03F000000000000F83F32
:1048200000000000000000000000004003B8E23F6C
:10483000000000000000000006D0CF43EBFD4C3E1E
:044840003501000836
:044844001101000856
:104848000024F40010000000010000001000002007
:104858000000000000000000000000000000000050
:104868000000000000000000000000000000000040
:104878000000000000000000000000000000000030
:104888000000000000000000000000000000000020
:104898000000000000000000000000000000000010
:1048A8000000000000000000000000000000000000
:04000005080015C911
:00000001FF
